:020000040800F2
:1000000078060020290200083102000833020008A7
:10001000350200083702000839020008000000001D
:100020000000000000000000000000003B0200088B
:100030003D020008000000003F02000841020008E5
:10004000430200084302000843020008430200087C
:10005000430200084302000843020008430200086C
:10006000430200084302000843020008430200085C
:10007000430200084302000843020008430200084C
:10008000430200084302000843020008430200083C
:10009000430200084302000843020008430200082C
:1000A000430200084302000843020008430200081C
:1000B000430200084302000843020008430200080C
:1000C00043020008430200084302000843020008FC
:1000D000430200088D06000843020008430200089E
:1000E00043020008430200084302000843020008DC
:1000F00043020008430200084302000843020008CC
:1001000043020008430200084302000843020008BB
:1001100043020008430200084302000843020008AB
:10012000C903000843020008430200084302000814
:10013000430200084302000843020008430200088B
:10014000430200084302000843020008430200087B
:10015000430200084302000843020008430200086B
:10016000430200084302000843020008430200085B
:100170004302000843020008430200080000000098
:10018000430200084302000800F002F800F03CF8C7
:100190000AA090E8000C82448344AAF10107DA45E2
:1001A00001D100F031F8AFF2090EBAE80F0013F0F8
:1001B000010F18BFFB1A43F0010318472805000080
:1001C00048050000103A24BF78C878C1FAD8520711
:1001D00024BF30C830C144BF04680C6070470000C1
:1001E0000023002400250026103A28BF78C1FBD840
:1001F000520728BF30C148BF0B6070471FB500F0E1
:100200006BFA1FBD10B510BD00F031F81146FFF7B5
:10021000F5FF00F047FA00F04FF803B4FFF7F2FFE4
:1002200003BC00F057F80000094880470948004720
:10023000FEE7FEE7FEE7FEE7FEE7FEE7FEE7FEE796
:10024000FEE7FEE704480549054A064B70470000F3
:10025000AD0500088901000878000020780600201C
:10026000780200207802002070477047704775467A
:1002700000F02CF8AE4605006946534620F0070012
:10028000854618B020B5FFF7DDFFBDE820404FF0F0
:1002900000064FF000074FF000084FF0000B21F070
:1002A0000701AC46ACE8C009ACE8C009ACE8C0093D
:1002B000ACE8C0098D46704710B50446AFF3008026
:1002C0002046BDE81040FFF7A8BF00000048704777
:1002D0001400002001491820ABBEFEE726000200F2
:1002E000704700003548016841F48071016033486F
:1002F0001438016841F0010101603148D0F804135D
:1003000041F48031C0F80413416841F480714160C8
:10031000416821F000714160416841F4C041416091
:10032000816821F002018160816821F4806181602F
:10033000816821F400618160816841F0C061816061
:10034000816841F480718160816841F4007181604D
:10035000816841F080518160C16A41F40011C1623D
:10036000016941F480310161016941F400210161B9
:10037000016941F480010161416B41F00501416374
:10038000416B41F0C0014163416B41F4E051416375
:10039000C16841F00101C1600A490A6842F4406243
:1003A0000A600A6842F4C0420A600A6842F4C03235
:1003B0000A60816841F00101816070474438024061
:1003C0000020014000000240114810B5006880067E
:1003D0001CD50F4810300068000311D50D480E4998
:1003E00002880B881A4453080C4A138043884C88AF
:1003F00023445B08538080888988084440089080A3
:1004000003480830016841F02001016010BD000080
:1004100000640240060000200C00002000000020C4
:100420002448016841F4800101602348016821F0FB
:1004300060610160204A214908321160121D204983
:100440001160121D1F4911600321021D11604FF43C
:1004500080210160016841F480610160016821F43C
:1004600000710160016841F400510160016841F4CC
:1004700000610160016841F480710160016821F050
:1004800040010160016841F400310160016841F000
:1004900010010160016841F0010101600A494FF05B
:1004A0008070C1F8000108495020343181F80004FF
:1004B0007047000030380240106402404C20014078
:1004C000060000200C00002004E000E0344A10B5D3
:1004D000106840F48030106010688003FCD530480C
:1004E0004030016841F0805101602E48016841F4BC
:1004F000804101602A490831086820F0F000086056
:10050000086840F400400860086840F4A0500860A3
:10051000081F036823F03F030360036843F00403EC
:100520000360036847F6C074A3430360036843F4A1
:1005300028530360036823F440330360036843F4E3
:1005400080330360036843F480030360106840F065
:100550008070106010688001FCD51348026842F476
:1005600080720260026842F400720260026842F423
:1005700080620260026822F007020260026842F0B4
:1005800005020260086820F003000860086840F077
:10059000020008600868C0F381000228FAD110BD8B
:1005A0000038024000700040003C024005480168ED
:1005B00041F47001016003494FF000608039086028
:1005C0007047000088ED00E00848016841F0010133
:1005D00001606421000681620549C16220214160F9
:1005E000016841F00101016070470000403802409D
:1005F000C02709002248016841F00101016020483C
:100600001430016841F0100101601E48416A41F454
:1006100000214162016841F400210160816841F4D8
:1006200000218160416A41F4E0614162016841F466
:1006300000110160416841F480614160816841F4CA
:10064000001181601048816841F4B6718160C16811
:1006500041F00801C160C16841F00401C160C16896
:1006600021F48051C160416921F04001416141693B
:1006700021F080014161C16841F40051C1607047BF
:100680003038024000000240001001400448016878
:1006900021F020010160016821F0800101607047B4
:1006A00000100140FFF712FFFFF7A4FFFFF71AFE4B
:1006B000FFF7B6FEFFF788FF054A06496823106872
:1006C0004006FCD553600020401C8842FCDBF6E766
:1006D0000010014020A107004FF04070E1EE100A29
:1006E000704700000407000800000020140000000C
:1006F000C401000818070008140000206406000068
:10070000E001000800000000000000000000000000
:080710000000000000000000E1
:040000050800018965
:00000001FF
